{"abi":[{"type":"constructor","inputs":[],"stateMutability":"nonpayable"},{"type":"function","name":"UPGRADE_INTERFACE_VERSION","inputs":[],"outputs":[{"name":"","type":"string","internalType":"string"}],"stateMutability":"view"},{"type":"function","name":"attest","inputs":[{"name":"root","type":"bytes32","internalType":"bytes32"}],"outputs":[],"stateMutability":"nonpayable"},{"type":"function","name":"initialize","inputs":[{"name":"initialOwner","type":"address","internalType":"address"}],"outputs":[],"stateMutability":"nonpayable"},{"type":"function","name":"owner","inputs":[],"outputs":[{"name":"","type":"address","internalType":"address"}],"stateMutability":"view"},{"type":"function","name":"proxiableUUID","inputs":[],"outputs":[{"name":"","type":"bytes32","internalType":"bytes32"}],"stateMutability":"view"},{"type":"function","name":"renounceOwnership","inputs":[],"outputs":[],"stateMutability":"nonpayable"},{"type":"function","name":"timestamp","inputs":[{"name":"root","type":"bytes32","internalType":"bytes32"}],"outputs":[{"name":"","type":"uint256","internalType":"uint256"}],"stateMutability":"view"},{"type":"function","name":"transferOwnership","inputs":[{"name":"newOwner","type":"address","internalType":"address"}],"outputs":[],"stateMutability":"nonpayable"},{"type":"function","name":"upgradeToAndCall","inputs":[{"name":"newImplementation","type":"address","internalType":"address"},{"name":"data","type":"bytes","internalType":"bytes"}],"outputs":[],"stateMutability":"payable"},{"type":"event","name":"Attested","inputs":[{"name":"root","type":"bytes32","indexed":true,"internalType":"bytes32"},{"name":"sender","type":"address","indexed":true,"internalType":"address"},{"name":"timestamp","type":"uint256","indexed":false,"internalType":"uint256"}],"anonymous":false},{"type":"event","name":"Initialized","inputs":[{"name":"version","type":"uint64","indexed":false,"internalType":"uint64"}],"anonymous":false},{"type":"event","name":"OwnershipTransferred","inputs":[{"name":"previousOwner","type":"address","indexed":true,"internalType":"address"},{"name":"newOwner","type":"address","indexed":true,"internalType":"address"}],"anonymous":false},{"type":"event","name":"Upgraded","inputs":[{"name":"implementation","type":"address","indexed":true,"internalType":"address"}],"anonymous":false},{"type":"error","name":"AddressEmptyCode","inputs":[{"name":"target","type":"address","internalType":"address"}]},{"type":"error","name":"ERC1967InvalidImplementation","inputs":[{"name":"implementation","type":"address","internalType":"address"}]},{"type":"error","name":"ERC1967NonPayable","inputs":[]},{"type":"error","name":"FailedCall","inputs":[]},{"type":"error","name":"InvalidInitialization","inputs":[]},{"type":"error","name":"NotInitializing","inputs":[]},{"type":"error","name":"OwnableInvalidOwner","inputs":[{"name":"owner","type":"address","internalType":"address"}]},{"type":"error","name":"OwnableUnauthorizedAccount","inputs":[{"name":"account","type":"address","internalType":"address"}]},{"type":"error","name":"UUPSUnauthorizedCallContext","inputs":[]},{"type":"error","name":"UUPSUnsupportedProxiableUUID","inputs":[{"name":"slot","type":"bytes32","internalType":"bytes32"}]}],"bytecode":{"object":"0x60a06040523073ffffffffffffffffffffffffffffffffffffffff1660809073ffffffffffffffffffffffffffffffffffffffff1681525034801562000043575f80fd5b50620000546200005a60201b60201c565b620001e1565b5f6200006b6200015e60201b60201c565b9050805f0160089054906101000a900460ff1615620000b6576040517ff92ee8a900000000000000000000000000000000000000000000000000000000815260040160405180910390fd5b67ffffffffffffffff8016815f015f9054906101000a900467ffffffffffffffff1667ffffffffffffffff16146200015b5767ffffffffffffffff815f015f6101000a81548167ffffffffffffffff021916908367ffffffffffffffff1602179055507fc7f505b2f371ae2175ee4913f4499e1f2633a7b5936321eed1cdaeb6115181d267ffffffffffffffff604051620001529190620001c6565b60405180910390a15b50565b5f80620001706200017960201b60201c565b90508091505090565b5f7ff0c57e16840df040f15088dc2f81fe391c3923bec73e23a9662efc9c229c6a005f1b905090565b5f67ffffffffffffffff82169050919050565b620001c081620001a2565b82525050565b5f602082019050620001db5f830184620001b5565b92915050565b608051611362620002085f395f818161060301528181610658015261081201526113625ff3fe608060405260043610610085575f3560e01c8063715018a611610058578063715018a6146101335780638da5cb5b14610149578063ad3cb1cc14610173578063c4d66de81461019d578063f2fde38b146101c557610085565b806323c3617f146100895780634d003070146100b15780634f1ef286146100ed57806352d1902d14610109575b5f80fd5b348015610094575f80fd5b506100af60048036038101906100aa9190610eb6565b6101ed565b005b3480156100bc575f80fd5b506100d760048036038101906100d29190610eb6565b6102c0565b6040516100e49190610ef9565b60405180910390f35b610107600480360381019061010291906110a8565b6102e2565b005b348015610114575f80fd5b5061011d610301565b60405161012a9190611111565b60405180910390f35b34801561013e575f80fd5b50610147610332565b005b348015610154575f80fd5b5061015d610345565b60405161016a9190611139565b60405180910390f35b34801561017e575f80fd5b5061018761037a565b60405161019491906111cc565b60405180910390f35b3480156101a8575f80fd5b506101c360048036038101906101be91906111ec565b6103b3565b005b3480156101d0575f80fd5b506101eb60048036038101906101e691906111ec565b610534565b005b5f801b8103610231576040517f08c379a000000000000000000000000000000000000000000000000000000000815260040161022890611261565b60405180910390fd5b5f61023a6105b8565b90505f815f015f8481526020019081526020015f2054036102bc5742815f015f8481526020019081526020015f20819055503373ffffffffffffffffffffffffffffffffffffffff16827f61cae4201bb8c0117495b22a70f5202410666b349c27302dac280dc054b60f2a426040516102b39190610ef9565b60405180910390a35b5050565b5f6102c96105b8565b5f015f8381526020019081526020015f20549050919050565b6102ea610601565b6102f3826106e7565b6102fd82826106f2565b5050565b5f61030a610810565b7f360894a13ba1a3210667c828492db98dca3e2076cc3735a920a3ca505d382bbc5f1b905090565b61033a610897565b6103435f61091e565b565b5f8061034f6109ef565b9050805f015f9054906101000a900473ffffffffffffffffffffffffffffffffffffffff1691505090565b6040518060400160405280600581526020017f352e302e3000000000000000000000000000000000000000000000000000000081525081565b5f6103bc610a16565b90505f815f0160089054906101000a900460ff161590505f825f015f9054906101000a900467ffffffffffffffff1690505f808267ffffffffffffffff161480156104045750825b90505f60018367ffffffffffffffff1614801561043757505f3073ffffffffffffffffffffffffffffffffffffffff163b145b905081158015610445575080155b1561047c576040517ff92ee8a900000000000000000000000000000000000000000000000000000000815260040160405180910390fd5b6001855f015f6101000a81548167ffffffffffffffff021916908367ffffffffffffffff16021790555083156104c9576001855f0160086101000a81548160ff0219169083151502179055505b6104d286610a29565b831561052c575f855f0160086101000a81548160ff0219169083151502179055507fc7f505b2f371ae2175ee4913f4499e1f2633a7b5936321eed1cdaeb6115181d2600160405161052391906112d4565b60405180910390a15b505050505050565b61053c610897565b5f73ffffffffffffffffffffffffffffffffffffffff168173ffffffffffffffffffffffffffffffffffffffff16036105ac575f6040517f1e4fbdf70000000000000000000000000000000000000000000000000000000081526004016105a39190611139565b60405180910390fd5b6105b58161091e565b50565b5f806105f86040518060400160405280601f81526020017f7574732e73746f726167652e556e6976657273616c54696d657374616d707300815250610a3d565b90508091505090565b7f000000000000000000000000000000000000000000000000000000000000000073ffffffffffffffffffffffffffffffffffffffff163073ffffffffffffffffffffffffffffffffffffffff1614806106ae57507f000000000000000000000000000000000000000000000000000000000000000073ffffffffffffffffffffffffffffffffffffffff16610695610a59565b73ffffffffffffffffffffffffffffffffffffffff1614155b156106e5576040517fe07c8dba00000000000000000000000000000000000000000000000000000000815260040160405180910390fd5b565b6106ef610897565b50565b8173ffffffffffffffffffffffffffffffffffffffff166352d1902d6040518163ffffffff1660e01b8152600401602060405180830381865afa92505050801561075a57506040513d601f19601f820116820180604052508101906107579190611301565b60015b61079b57816040517f4c9c8ce30000000000000000000000000000000000000000000000000000000081526004016107929190611139565b60405180910390fd5b7f360894a13ba1a3210667c828492db98dca3e2076cc3735a920a3ca505d382bbc5f1b811461080157806040517faa1d49a40000000000000000000000000000000000000000000000000000000081526004016107f89190611111565b60405180910390fd5b61080b8383610aac565b505050565b7f000000000000000000000000000000000000000000000000000000000000000073ffffffffffffffffffffffffffffffffffffffff163073ffffffffffffffffffffffffffffffffffffffff1614610895576040517fe07c8dba00000000000000000000000000000000000000000000000000000000815260040160405180910390fd5b565b61089f610b1e565b73ffffffffffffffffffffffffffffffffffffffff166108bd610345565b73ffffffffffffffffffffffffffffffffffffffff161461091c576108e0610b1e565b6040517f118cdaa70000000000000000000000000000000000000000000000000000000081526004016109139190611139565b60405180910390fd5b565b5f6109276109ef565b90505f815f015f9054906101000a900473ffffffffffffffffffffffffffffffffffffffff16905082825f015f6101000a81548173ffffffffffffffffffffffffffffffffffffffff021916908373ffffffffffffffffffffffffffffffffffffffff1602179055508273ffffffffffffffffffffffffffffffffffffffff168173ffffffffffffffffffffffffffffffffffffffff167f8be0079c531659141344cd1fd0a4f28419497f9722a3daafe3b4186f6b6457e060405160405180910390a3505050565b5f7f9016d09d72d40fdae2fd8ceac6b6234c7706214fd39c1cd1e609a0528c199300905090565b5f80610a20610b25565b90508091505090565b610a31610b4e565b610a3a81610b8e565b50565b5f600182516020840120035f5260ff1960205f20169050919050565b5f610a857f360894a13ba1a3210667c828492db98dca3e2076cc3735a920a3ca505d382bbc5f1b610c12565b5f015f9054906101000a900473ffffffffffffffffffffffffffffffffffffffff16905090565b610ab582610c1b565b8173ffffffffffffffffffffffffffffffffffffffff167fbc7cd75a20ee27fd9adebab32041f755214dbc6bffa90cc0225b39da2e5c2d3b60405160405180910390a25f81511115610b1157610b0b8282610ce4565b50610b1a565b610b19610dd5565b5b5050565b5f33905090565b5f7ff0c57e16840df040f15088dc2f81fe391c3923bec73e23a9662efc9c229c6a005f1b905090565b610b56610e11565b610b8c576040517fd7e6bcf800000000000000000000000000000000000000000000000000000000815260040160405180910390fd5b565b610b96610b4e565b5f73ffffffffffffffffffffffffffffffffffffffff168173ffffffffffffffffffffffffffffffffffffffff1603610c06575f6040517f1e4fbdf7000000000000000000000000000000000000000000000000000000008152600401610bfd9190611139565b60405180910390fd5b610c0f8161091e565b50565b5f819050919050565b5f8173ffffffffffffffffffffffffffffffffffffffff163b03610c7657806040517f4c9c8ce3000000000000000000000000000000000000000000000000000000008152600401610c6d9190611139565b60405180910390fd5b80610ca27f360894a13ba1a3210667c828492db98dca3e2076cc3735a920a3ca505d382bbc5f1b610c12565b5f015f6101000a81548173ffffffffffffffffffffffffffffffffffffffff021916908373ffffffffffffffffffffffffffffffffffffffff16021790555050565b60605f610cf18484610e2f565b9050808015610d2757505f610d04610e43565b1180610d2657505f8473ffffffffffffffffffffffffffffffffffffffff163b115b5b15610d3c57610d34610e4a565b915050610dcf565b8015610d7f57836040517f9996b315000000000000000000000000000000000000000000000000000000008152600401610d769190611139565b60405180910390fd5b5f610d88610e43565b1115610d9b57610d96610e67565b610dcd565b6040517fd6bda27500000000000000000000000000000000000000000000000000000000815260040160405180910390fd5b505b92915050565b5f341115610e0f576040517fb398979f00000000000000000000000000000000000000000000000000000000815260040160405180910390fd5b565b5f610e1a610a16565b5f0160089054906101000a900460ff16905090565b5f805f835160208501865af4905092915050565b5f3d905090565b606060405190503d81523d5f602083013e3d602001810160405290565b6040513d5f823e3d81fd5b5f604051905090565b5f80fd5b5f80fd5b5f819050919050565b610e9581610e83565b8114610e9f575f80fd5b50565b5f81359050610eb081610e8c565b92915050565b5f60208284031215610ecb57610eca610e7b565b5b5f610ed884828501610ea2565b91505092915050565b5f819050919050565b610ef381610ee1565b82525050565b5f602082019050610f0c5f830184610eea565b92915050565b5f73ffffffffffffffffffffffffffffffffffffffff82169050919050565b5f610f3b82610f12565b9050919050565b610f4b81610f31565b8114610f55575f80fd5b50565b5f81359050610f6681610f42565b92915050565b5f80fd5b5f80fd5b5f601f19601f8301169050919050565b7f4e487b71000000000000000000000000000000000000000000000000000000005f52604160045260245ffd5b610fba82610f74565b810181811067ffffffffffffffff82111715610fd957610fd8610f84565b5b80604052505050565b5f610feb610e72565b9050610ff78282610fb1565b919050565b5f67ffffffffffffffff82111561101657611015610f84565b5b61101f82610f74565b9050602081019050919050565b828183375f83830152505050565b5f61104c61104784610ffc565b610fe2565b90508281526020810184848401111561106857611067610f70565b5b61107384828561102c565b509392505050565b5f82601f83011261108f5761108e610f6c565b5b813561109f84826020860161103a565b91505092915050565b5f80604083850312156110be576110bd610e7b565b5b5f6110cb85828601610f58565b925050602083013567ffffffffffffffff8111156110ec576110eb610e7f565b5b6110f88582860161107b565b9150509250929050565b61110b81610e83565b82525050565b5f6020820190506111245f830184611102565b92915050565b61113381610f31565b82525050565b5f60208201905061114c5f83018461112a565b92915050565b5f81519050919050565b5f82825260208201905092915050565b5f5b8381101561118957808201518184015260208101905061116e565b5f8484015250505050565b5f61119e82611152565b6111a8818561115c565b93506111b881856020860161116c565b6111c181610f74565b840191505092915050565b5f6020820190508181035f8301526111e48184611194565b905092915050565b5f6020828403121561120157611200610e7b565b5b5f61120e84828501610f58565b91505092915050565b7f5554533a20526f6f742063616e6e6f74206265207a65726f00000000000000005f82015250565b5f61124b60188361115c565b915061125682611217565b602082019050919050565b5f6020820190508181035f8301526112788161123f565b9050919050565b5f819050919050565b5f67ffffffffffffffff82169050919050565b5f819050919050565b5f6112be6112b96112b48461127f565b61129b565b611288565b9050919050565b6112ce816112a4565b82525050565b5f6020820190506112e75f8301846112c5565b92915050565b5f815190506112fb81610e8c565b92915050565b5f6020828403121561131657611315610e7b565b5b5f611323848285016112ed565b9150509291505056fea2646970667358221220b5dffba878310fe071e95c50a88c1cac2cc7d9f7aa1862538e26902c7c39daed64736f6c63430008180033","linkReferences":{}},"methodIdentifiers":{"UPGRADE_INTERFACE_VERSION()":"ad3cb1cc","attest(bytes32)":"23c3617f","initialize(address)":"c4d66de8","owner()":"8da5cb5b","proxiableUUID()":"52d1902d","renounceOwnership()":"715018a6","timestamp(bytes32)":"4d003070","transferOwnership(address)":"f2fde38b","upgradeToAndCall(address,bytes)":"4f1ef286"},"storageLayout":{"storage":[],"types":{}},"id":2}