{"abi":[{"type":"constructor","inputs":[],"stateMutability":"nonpayable"},{"type":"function","name":"UPGRADE_INTERFACE_VERSION","inputs":[],"outputs":[{"name":"","type":"string","internalType":"string"}],"stateMutability":"view"},{"type":"function","name":"attest","inputs":[{"name":"root","type":"bytes32","internalType":"bytes32"}],"outputs":[],"stateMutability":"nonpayable"},{"type":"function","name":"initialize","inputs":[{"name":"initialOwner","type":"address","internalType":"address"}],"outputs":[],"stateMutability":"nonpayable"},{"type":"function","name":"owner","inputs":[],"outputs":[{"name":"","type":"address","internalType":"address"}],"stateMutability":"view"},{"type":"function","name":"proxiableUUID","inputs":[],"outputs":[{"name":"","type":"bytes32","internalType":"bytes32"}],"stateMutability":"view"},{"type":"function","name":"renounceOwnership","inputs":[],"outputs":[],"stateMutability":"nonpayable"},{"type":"function","name":"timestamp","inputs":[{"name":"root","type":"bytes32","internalType":"bytes32"}],"outputs":[{"name":"","type":"uint256","internalType":"uint256"}],"stateMutability":"view"},{"type":"function","name":"transferOwnership","inputs":[{"name":"newOwner","type":"address","internalType":"address"}],"outputs":[],"stateMutability":"nonpayable"},{"type":"function","name":"upgradeToAndCall","inputs":[{"name":"newImplementation","type":"address","internalType":"address"},{"name":"data","type":"bytes","internalType":"bytes"}],"outputs":[],"stateMutability":"payable"},{"type":"event","name":"Attested","inputs":[{"name":"root","type":"bytes32","indexed":true,"internalType":"bytes32"},{"name":"sender","type":"address","indexed":true,"internalType":"address"},{"name":"timestamp","type":"uint256","indexed":false,"internalType":"uint256"}],"anonymous":false},{"type":"event","name":"Initialized","inputs":[{"name":"version","type":"uint64","indexed":false,"internalType":"uint64"}],"anonymous":false},{"type":"event","name":"OwnershipTransferred","inputs":[{"name":"previousOwner","type":"address","indexed":true,"internalType":"address"},{"name":"newOwner","type":"address","indexed":true,"internalType":"address"}],"anonymous":false},{"type":"event","name":"Upgraded","inputs":[{"name":"implementation","type":"address","indexed":true,"internalType":"address"}],"anonymous":false},{"type":"error","name":"AddressEmptyCode","inputs":[{"name":"target","type":"address","internalType":"address"}]},{"type":"error","name":"ERC1967InvalidImplementation","inputs":[{"name":"implementation","type":"address","internalType":"address"}]},{"type":"error","name":"ERC1967NonPayable","inputs":[]},{"type":"error","name":"FailedCall","inputs":[]},{"type":"error","name":"InvalidInitialization","inputs":[]},{"type":"error","name":"NotInitializing","inputs":[]},{"type":"error","name":"OwnableInvalidOwner","inputs":[{"name":"owner","type":"address","internalType":"address"}]},{"type":"error","name":"OwnableUnauthorizedAccount","inputs":[{"name":"account","type":"address","internalType":"address"}]},{"type":"error","name":"UUPSUnauthorizedCallContext","inputs":[]},{"type":"error","name":"UUPSUnsupportedProxiableUUID","inputs":[{"name":"slot","type":"bytes32","internalType":"bytes32"}]}],"bytecode":{"object":"0x60a060405230608052348015610013575f80fd5b5061001c610021565b6100d3565b7ff0c57e16840df040f15088dc2f81fe391c3923bec73e23a9662efc9c229c6a00805468010000000000000000900460ff16156100715760405163f92ee8a960e01b815260040160405180910390fd5b80546001600160401b03908116146100d05780546001600160401b0319166001600160401b0390811782556040519081527fc7f505b2f371ae2175ee4913f4499e1f2633a7b5936321eed1cdaeb6115181d29060200160405180910390a15b50565b608051610b046100f95f395f81816104bb015281816104e401526106280152610b045ff3fe608060405260043610610084575f3560e01c8063715018a611610057578063715018a6146101025780638da5cb5b14610116578063ad3cb1cc1461015c578063c4d66de814610199578063f2fde38b146101b8575f80fd5b806323c3617f146100885780634d003070146100a95780634f1ef286146100db57806352d1902d146100ee575b5f80fd5b348015610093575f80fd5b506100a76100a236600461095e565b6101d7565b005b3480156100b4575f80fd5b506100c86100c336600461095e565b610295565b6040519081526020015b60405180910390f35b6100a76100e93660046109a4565b6102ae565b3480156100f9575f80fd5b506100c86102c9565b34801561010d575f80fd5b506100a76102e4565b348015610121575f80fd5b507f9016d09d72d40fdae2fd8ceac6b6234c7706214fd39c1cd1e609a0528c199300546040516001600160a01b0390911681526020016100d2565b348015610167575f80fd5b5061018c604051806040016040528060058152602001640352e302e360dc1b81525081565b6040516100d29190610a60565b3480156101a4575f80fd5b506100a76101b3366004610aac565b6102f7565b3480156101c3575f80fd5b506100a76101d2366004610aac565b6103f0565b806102295760405162461bcd60e51b815260206004820152601860248201527f5554533a20526f6f742063616e6e6f74206265207a65726f000000000000000060448201526064015b60405180910390fd5b5f61023261042d565b5f8381526020829052604081205491925003610291575f828152602082815260409182902042908190559151918252339184917f61cae4201bb8c0117495b22a70f5202410666b349c27302dac280dc054b60f2a910160405180910390a35b5050565b5f61029e61042d565b5f92835260205250604090205490565b6102b66104b0565b6102bf82610554565b610291828261055c565b5f6102d261061d565b505f80516020610ae483398151915290565b6102ec610666565b6102f55f6106c1565b565b5f610300610731565b805490915060ff600160401b820416159067ffffffffffffffff165f811580156103275750825b90505f8267ffffffffffffffff1660011480156103435750303b155b905081158015610351575080155b1561036f5760405163f92ee8a960e01b815260040160405180910390fd5b845467ffffffffffffffff19166001178555831561039957845460ff60401b1916600160401b1785555b6103a286610759565b83156103e857845460ff60401b19168555604051600181527fc7f505b2f371ae2175ee4913f4499e1f2633a7b5936321eed1cdaeb6115181d29060200160405180910390a15b505050505050565b6103f8610666565b6001600160a01b03811661042157604051631e4fbdf760e01b81525f6004820152602401610220565b61042a816106c1565b50565b60408051808201909152601f81527f7574732e73746f726167652e556e6976657273616c54696d657374616d7073006020909101527f6191da0f5f254a176c2a5b8e81a37f62349600d58cdbf87518a33cdde24d517a5f908152807f500a69046951d8ea21a7dabf6fe6e1792e3ffa4dc61a276ae65b0e2b034681005b92915050565b306001600160a01b037f000000000000000000000000000000000000000000000000000000000000000016148061053657507f00000000000000000000000000000000000000000000000000000000000000006001600160a01b031661052a5f80516020610ae4833981519152546001600160a01b031690565b6001600160a01b031614155b156102f55760405163703e46dd60e11b815260040160405180910390fd5b61042a610666565b816001600160a01b03166352d1902d6040518163ffffffff1660e01b8152600401602060405180830381865afa9250505080156105b6575060408051601f3d908101601f191682019092526105b391810190610acc565b60015b6105de57604051634c9c8ce360e01b81526001600160a01b0383166004820152602401610220565b5f80516020610ae4833981519152811461060e57604051632a87526960e21b815260048101829052602401610220565b610618838361076a565b505050565b306001600160a01b037f000000000000000000000000000000000000000000000000000000000000000016146102f55760405163703e46dd60e11b815260040160405180910390fd5b336106987f9016d09d72d40fdae2fd8ceac6b6234c7706214fd39c1cd1e609a0528c199300546001600160a01b031690565b6001600160a01b0316146102f55760405163118cdaa760e01b8152336004820152602401610220565b7f9016d09d72d40fdae2fd8ceac6b6234c7706214fd39c1cd1e609a0528c19930080546001600160a01b031981166001600160a01b03848116918217845560405192169182907f8be0079c531659141344cd1fd0a4f28419497f9722a3daafe3b4186f6b6457e0905f90a3505050565b5f807ff0c57e16840df040f15088dc2f81fe391c3923bec73e23a9662efc9c229c6a006104aa565b6107616107bf565b61042a816107e4565b610773826107ec565b6040516001600160a01b038316907fbc7cd75a20ee27fd9adebab32041f755214dbc6bffa90cc0225b39da2e5c2d3b905f90a28051156107b757610618828261084f565b6102916108ef565b6107c761090e565b6102f557604051631afcd79f60e31b815260040160405180910390fd5b6103f86107bf565b806001600160a01b03163b5f0361082157604051634c9c8ce360e01b81526001600160a01b0382166004820152602401610220565b5f80516020610ae483398151915280546001600160a01b0319166001600160a01b0392909216919091179055565b60605f61085c8484610927565b905080801561087d57505f3d118061087d57505f846001600160a01b03163b115b156108925761088a61093a565b9150506104aa565b80156108bc57604051639996b31560e01b81526001600160a01b0385166004820152602401610220565b3d156108cf576108ca610953565b6108e8565b60405163d6bda27560e01b815260040160405180910390fd5b5092915050565b34156102f55760405163b398979f60e01b815260040160405180910390fd5b5f610917610731565b54600160401b900460ff16919050565b5f805f835160208501865af49392505050565b6040513d81523d5f602083013e3d602001810160405290565b6040513d5f823e3d81fd5b5f6020828403121561096e575f80fd5b5035919050565b80356001600160a01b038116811461098b575f80fd5b919050565b634e487b7160e01b5f52604160045260245ffd5b5f80604083850312156109b5575f80fd5b6109be83610975565b9150602083013567ffffffffffffffff808211156109da575f80fd5b818501915085601f8301126109ed575f80fd5b8135818111156109ff576109ff610990565b604051601f8201601f19908116603f01168101908382118183101715610a2757610a27610990565b81604052828152886020848701011115610a3f575f80fd5b826020860160208301375f6020848301015280955050505050509250929050565b5f602080835283518060208501525f5b81811015610a8c57858101830151858201604001528201610a70565b505f604082860101526040601f19601f8301168501019250505092915050565b5f60208284031215610abc575f80fd5b610ac582610975565b9392505050565b5f60208284031215610adc575f80fd5b505191905056fe360894a13ba1a3210667c828492db98dca3e2076cc3735a920a3ca505d382bbc","linkReferences":{}},"methodIdentifiers":{"UPGRADE_INTERFACE_VERSION()":"ad3cb1cc","attest(bytes32)":"23c3617f","initialize(address)":"c4d66de8","owner()":"8da5cb5b","proxiableUUID()":"52d1902d","renounceOwnership()":"715018a6","timestamp(bytes32)":"4d003070","transferOwnership(address)":"f2fde38b","upgradeToAndCall(address,bytes)":"4f1ef286"},"storageLayout":{"storage":[],"types":{}},"id":2}